:020000040001F9
:10F00000686A002015F401001DF401001FF40100DE
:10F0100021F4010023F4010025F4010000000000A8
:10F0200000000000000000000000000027F40100C4
:10F0300029F40100000000002BF401002DF4010070
:10F040005DFE01002FF401009D0602008900020010
:10F050002FF401002FF40100A1FA010041FF01008B
:10F06000C5040200D9040200ED0402002FF40100DF
:10F070002FF401002FF401002FF401002FF4010000
:10F080002FF401001DFF01002FF401002FF40100F7
:10F09000ED0002002FF40100F10002002FF4010046
:10F0A0002FF401002FF401000105020015050200F4
:10F0B0002FF401002FF40100000000000000000008
:10F0C0002FF401002FF401002FF40100BD00020015
:10F0D0002FF401002FF401002FF4010000000000C4
:10F0E0000000000000000000000000000000000020
:10F0F0000000000000000000000000000000000010
:10F1000000000000000000000000000000000000FF
:10F1100000000000000000000000000000000000EF
:10F40000DFF80CD000F0A0FA0048004755190200C0
:10F41000686A00200648804706480047FEE7FEE786
:10F42000FEE7FEE7FEE7FEE7FEE7FEE7FEE7FEE7B4
:10F430009102020001F40100004870471C410200E3
:10F4400040EA01039B0703D009E008C9121F08C066
:10F45000042AFAD203E011F8013B00F8013B521EE6
:10F46000F9D27047D2B201E000F8012B491EFBD25D
:10F4700070470022F6E710B513460A4604461946BF
:10F48000FFF7F0FF204610BD421C10F8011B0029B9
:10F49000FBD1801A70472DE9FE4F804681EA0300B8
:10F4A000C00F0C46009021F0004123F00045B8EB5E
:10F4B0000200A94105D24046214690461C460B4613
:10F4C000024623F00040104347D0270DC7F30A003F
:10F4D000C3F30A510290401A019040286BDAC3F33B
:10F4E000130040F4801B0098924620B10023D2EB19
:10F4F000030A63EB0B0B01985946C0F140025046DA
:10F5000000F093F906460D4650465946019A00F020
:10F51000ABF910EB08006141002487EA115284EA3C
:10F52000E7731A4340D0009A62B3019A012A4FEA66
:10F53000075215DC001B61EB02014FF0004202EAAA
:10F540000752CDE90042001C41F5801132462B469E
:10F5500000F0ABF903B0BDE8F08F40462146F9E773
:10F56000001B61EB0201001C41F5801300185B4198
:10F570002018A2F5001747EB030140EAD570B61931
:10F580006D4111E06D084FEA360645EAC0754FEA55
:10F590000752001B61EB0201001C41F58011490874
:10F5A0004FEA30000019514132462B4603B0BDE806
:10F5B000F04F00F06BB90098012240000023D0EB1F
:10F5C000020263EBE073009821464FEAE074B8EB67
:10F5D000000061EB0401E9E783F000435BE781F0A1
:10F5E000004158E72DE9FE4F81EA030404F000448E
:10F5F00021F0004100944FF0000B23F0004350EA4B
:10F6000001045ED052EA03045BD0C3F30A54C1F391
:10F610000A552C44A4F2F3340194A0FB0254C1F324
:10F62000130141F48011C3F3130343F4801301FB6E
:10F63000024400FB034E840A970A44EA815447EAD5
:10F640008357A4FB076802958D0A05FB07854FEADF
:10F65000932C04FB0C542705029D4FEA065847EAF9
:10F660001637B5EB08056EEB070C870E920E47EACE
:10F67000811742EA8312A7FB0201B6EB0B0164EB90
:10F6800000042B0D43EA0C335E1844EB1C50DA46A1
:10F690005146E7FB0201C5F313044FEA0B3343EA7B
:10F6A00014534FEA0432019C43EA0603A4F10C040C
:10F6B0000294009CCDE900B400F0F7F803B0BDE877
:10F6C000F08F00200146F9E72DE9F04D81EA0304AF
:10F6D00004F0004B21F0004514464FF0000A23F0DF
:10F6E000004150EA050220D054EA01021DD0C5F3C2
:10F6F0000A570246C5F31303C1F31300C1F30A56B8
:10F7000040F4801543F48013A7EB0608101BD6467F
:10F7100008F2FD3873EB050002D308F1010801E09F
:10F7200092185B41B8F1000F03DA00200146BDE8F2
:10F73000F08D00204FF48011064684460EE0171B22
:10F7400073EB050705D3121B63EB050306434CEA75
:10F75000010C49084FEA300092185B4150EA01075A
:10F76000EDD152EA030012D082EA040083EA0501D7
:10F77000084305D0101BAB4106D20122002306E04E
:10F7800000224FF0004302E06FF0010253101AEB29
:10F7900006004CEB085110EB0A0041EB0B01BDE8F1
:10F7A000F04D00F073B80EB5C10F80EAE070084468
:10F7B000CA07002140F233438DE80E000A460B468B
:10F7C00000F073F803B000BD2DE9F05F054600209E
:10F7D00092469B4688460646814640241BE02846C2
:10F7E00041464746224600F02FF853465A46C01A73
:10F7F000914110D311461846224600F016F82D1AF2
:10F8000067EB01084F4622460120002100F00DF869
:10F8100017EB00094E41201EA4F10104DFDC48462D
:10F8200031462A464346BDE8F09F202A04DB203AB1
:10F8300000FA02F1002070479140C2F1200320FA43
:10F8400003F3194390407047202A04DB203A21FA41
:10F8500002F00021704721FA02F3D040C2F12002E9
:10F860009140084319467047202A06DBCB17203AFF
:10F8700041FA02F043EAE07306E041FA02F3D040B5
:10F88000C2F12002914008431946704710B5141E7A
:10F8900073F1000408DA401C41F1000192185B4149
:10F8A0001A4301D120F0010010BD2DE9F04D924620
:10F8B0009B4611B1B1FA81F202E0B0FA80F2203237
:10F8C0009046FFF7B2FF04460F4640EA0A0041EABD
:10F8D0000B0153465A46084313D0114653EA010020
:10F8E00019D0C8F140025046FFF7AEFF05460E465C
:10F8F000504659464246FFF798FF084305D001207D
:10F9000004E020463946BDE8F08D0020054346EA74
:10F91000E0762C4337430A986305E40AA0EB08001D
:10F920000022FD0A44EA47540A3002D5002001466D
:10F93000E9E7010510196941DDE908450019694148
:10F94000BDE8F04DA2E70000064C074D06E0E06878
:10F9500040F0010394E8070098471034AC42F6D316
:10F96000FFF752FD7041020090410200014880798A
:10F9700000F0F2B9682A002010B588B001F092FCBE
:10F980003FDF9DF8080028A120F00F00401C20F068
:10F99000F00010308DF80800042202A87CDF08B1C6
:10F9A00001F03AFA002400940620ADF80000182077
:10F9B0000194ADF80200ADF804404FF4C870ADF802
:10F9C000060068467ADF08B101F026FA6946184851
:10F9D00001F096FC08B101F01FFA01F0A5F91C2115
:10F9E0006846FFF746FD4FF42020CDE90040801027
:10F9F000029003208DF80C000E4805900E480690EA
:10FA0000ADF80E408DF81040684601F07FFB08B15C
:10FA100001F002FA094801780029FCD008B0BDE8DD
:10FA2000104001F0B9B90000434D3232000000002F
:10FA30003C430020492B0200C51502006A2A002021
:10FA4000F0B4154E154F002303EB430107EB4304BD
:10FA500032F82150A4F8D85002EB81055B1C69886C
:10FA6000A4F81811A988A4F85811E988A4F89C11E1
:10FA70002989A4F8DC116989A4F81C12202BE3D38E
:10FA80003168B960F168C7F868130146F0BC0348F3
:10FA9000C0221430FFF7D4BC90430020102E002069
:10FAA0002DE9F04700268CB0DFF86091B0464FF4A6
:10FAB0008075012437460696284602F0E9FC38B1E5
:10FAC000D9F80403204203D0284602F0D7FC26438D
:10FAD0002D1D64007F1CADB2082FEDD34FF4BE7412
:10FAE000204602F0D5FC48B1204602F0C7FC46F0A3
:10FAF000004606AA0121002002F0ACFC444D16F09D
:10FB0000FF0F15D00127002437420DD009EB8401E7
:10FB1000D1F81005D1F81015C0F3042055F82420B1
:10FB2000C1F3014102B190477F00641C082CEBD364
:10FB3000002E67DA4FF0FF30CDE90880002634460A
:10FB4000281910F8507F90F9000027F0C008401CD9
:10FB500044D009A9404601F0F3FF58B34FEA971982
:10FB6000404601F05DFC55F820701FB1B9F1030F5C
:10FB700003D00FE0B9F1030F30D108A84FEAD80243
:10FB800008F00703815C4FF0010C0CFA03FC41EA1A
:10FB90000C0181544FF0A04101EB8800D0F8000720
:10FBA00006A9C0F3014A404601F0CAFF18B1BAF1F4
:10FBB000020F03D012E0BAF1030F0FD1B9F1030F16
:10FBC00008D1BAF1020F1BD00221404602F00EFC10
:10FBD000761CF6B217B149464046B847641C042C5F
:10FBE000AED3002E0ED06A460121002002F032FC76
:10FBF00006990098884205D00690089809909DE7DC
:10FC00000321E2E70CB0BDE8F0870000006000408F
:10FC10001C44002070B54FF48171018047F6030148
:10FC200041800022426082604FF400518281C18194
:10FC30004B1003824FF444434382A0F8D410A0F841
:10FC4000D6304FF40451A0F89811A0F89A314FF42F
:10FC5000D851A0F86E124FF4C061A0F8701242F2B1
:10FC60002554A0F87242CC00A0F85C42A0F85E12C5
:10FC70004FF48A44A0F860424FF44855A0F862520D
:10FC8000A0F864120225A0F866529E10A0F86862DF
:10FC9000A0F86A124BF20116A0F86C626E03A0F88D
:10FCA0007462A0F87612A0F878224FF48246A0F889
:10FCB0007A62A0F87C324FF48443A0F83E33A0F877
:10FCC00040136423A0F842334FF48643A0F8443332
:10FCD000A0F846136223A0F848334FF48843A0F8F5
:10FCE0004A33A0F84C137823A0F84E33A0F85043C1
:10FCF000A0F852134623A0F854331B02A0F8563341
:10FD0000A0F858133C23A0F85A334FF48E43A0F8C0
:10FD10005C33AB02A0F85E330E4CC0F860434FF486
:10FD20009044A0F86C43A0F86E13A0F870534FF401
:10FD30009244A0F87243A0F874131E21A0F8761321
:10FD40004FF4A041A0F86413A0F86633C0F868230C
:10FD500070BD00007856341270B51A4D04000BD0F7
:10FD6000012C10D0022C2BD1E87A00284FF0130080
:10FD700020D002F061FB1FE0132002F048FB1920A5
:10FD800002F045FB1BE0E87A00284FF0130002D098
:10FD900002F052FB01E002F041FB192002F04CFBA3
:10FDA0000948AC7100220069BDE870404FF4804101
:10FDB00001F08AB802F032FB192002F02FFBAC717F
:10FDC00070BD0000682A0020D83E020000F01F022B
:10FDD000012191404009800000F1E020C0F880122C
:10FDE000704700F01F02012191404009800000F19E
:10FDF000E020C0F88011704700F01F0201219140FF
:10FE00004009800000F1E020C0F80011704700F0C8
:10FE10001F02012191404009800000F1E020C0F85C
:10FE20000011704700F01F0201219140400980003D
:10FE300000F1E020C0F8001270474907090E0028C1
:10FE400006DA00F00F0000F1E02080F8141D704782
:10FE500000F1E02080F80014704700002DE9F04127
:10FE60004FF48077384601F073FE0124104EA50749
:10FE700048B1384601F073FE0120C5F808037470DC
:10FE8000002001F0D5FA4FF48277384601F060FE89
:10FE900000280BD0384601F062FE0220C5F80803A6
:10FEA000B470BDE8F041012001F0C2BABDE8F081B4
:10FEB0000844002010B54FF0A040D0F810050C4CBD
:10FEC000400D10F0010F10D0E078401E10F0FF0040
:10FED000E07009D1A078002806D10120A07014207C
:10FEE00002F09CFAC820E07010BD3C20FBE7000047
:10FEF000682A0020074810B5002240F26661C068F9
:10FF000000F0E2FF002803D0BDE8104000F084BFFD
:10FF100010BD0000D83E02007047000007480021D5
:10FF2000C0F84011C0F84411C0F84811C0F84C1195
:10FF3000C0F80011C0F8041103F058BC00100140D3
:10FF40002DE9FE434FF48278404602F025FD4C4FE8
:10FF500000254C4C012600B3404602F025FD94F8E4
:10FF60002E0010B194F82F10D1B18DF800506168B7
:10FF700001912189ADF80810E26832B1218B6183CB
:10FF800062602181E56010B102E0257400E03E600E
:10FF900021686846884784F82F5094F82E0060B393
:10FFA0004FF48077384602F0F7FC30B3384602F061
:10FFB000FBFC628B94F82D108A420AD9A2EB010057
:10FFC00080B260832289A2EB0000626802EB4000ED
:10FFD00005E007D1E06828B184F82F60658302F05E
:10FFE000D3FC04E08A4202D184F82F606583404646
:10FFF00002F0DAFC2248001D06604FF4887738468C
:020000040002F8
:1000000002F0CAFC48B1384602F0CEFC257402204A
:100010008DF800002168684688474FF48A77384693
:1000200002F0BAFC28B1384602F0BEFC2574BDE8E7
:10003000FE834FF000484FF48C7967691DE000BFE4
:10004000B7FA87F028FA00F109EB80058F432846BC
:1000500002F0A2FC88B1284602F0A6FCA5F58C753A
:10006000E8088DF8040045F38000401C8DF800601E
:100070008DF80500216868468847002FE0D1D6E753
:10008000007000409444002038B50B48094D0446E8
:100090004FF48C7102F092FC00280AD00020C4F8C2
:1000A0001801D4F8180100902846BDE8384001F046
:1000B000E9BA38BD004500200030004038B50A4894
:1000C000084C0021C0F80811D0F808110091214611
:1000D00003F01CFC002804D12046BDE8384001F0A4
:1000E000D1BA38BD204500200030024003F0F0BAFC
:1000F000074810B5406830B18047002807D0BDE8F8
:10010000104000F089BEBDE8104001F0CBBA10BD30
:10011000182B00202DE9F041444D454E0027697809
:100120003068A1B101293DD0400239D50024287999
:100130002C2863D03F4900EB800001EB80013E4852
:10014000142200BF01F08AF800285BD05DE0C002F5
:1001500026D5002428792C280AD0384900EB8000C5
:1001600001EB80011422344801F078F820B106E058
:10017000334908223048F7E72879401C287128794C
:100180002C2809D9306820F4006020F0C870306055
:1001900001202F7168700A24641CE4B2042CD9D3A6
:1001A000BDE8F0818002FBD5002428792C280BD0F3
:1001B000234900EB8000083101EB800114221E4826
:1001C00001F04CF828B107E01A491B480839082209
:1001D000F6E72879401C287128792C2809D930683D
:1001E00020F4006020F0D070306002202F71687021
:1001F0000A24641CE4B2042CD7D3D1E711490822A5
:100200000D489FE72879401C287128792C2808D9A7
:1002100030680A2420F4006020F0E07030602F7114
:100220006F70641CE4B2042C81D3B9E7682A002003
:10023000E42A0020783800203C4300208831002048
:10024000F8340020E83B0020084910B50020087170
:1002500002460748E521406800F036FE002803D03A
:10026000BDE8104000F0D8BD10BD0000682A002095
:10027000D83E0200054810B5406800F069FE00282D
:1002800003D0BDE8104000F0C7BD10BDD83E02004D
:10029000F0B581480023021D01780126101D4FF0A2
:1002A0008055062907D11478240704D10478C4F3B3
:1002B0000314032C02D0062904D00FE0784F774CAA
:1002C0007C670EE01478240708D10478C4F3031483
:1002D000032C06D0042C04D0052C02D0062907D00C
:1002E0000EE0D5F844426F4FC4F342343C6002E064
:1002F0001478240704D10478C4F30314032C02D027
:10030000062906D011E0684C276827F0807727601F
:100310000EE01478240708D10478C4F30314032CE6
:1003200006D0042C04D0052C02D006290AD011E0F6
:100330004FF08044C4F80C31C4F81031594C241FDC
:10034000236002E01478240704D10478C4F3031472
:10035000032C02D0062905D00CE0524F0324643749
:100360003C600AE01478240704D10478C4F3031431
:10037000032C02D006290DD014E04C4F05243C601C
:100380004A4C78342660494C083423603F23241FAC
:10039000236002E013781B0704D10378C3F303132F
:1003A000052B02D0062957D068E041490968414A27
:1003B00011603F49091D0968121D11603C4908314F
:1003C0000968121D11603A490C310968121D11604B
:1003D000374910310968121D116035491431096817
:1003E000121D1160324918310968324A20321160F9
:1003F0002F491C310968121D11602D4920310968EF
:10040000121D11602A4924310968121D1160284902
:1004100028310968121D116025492C310968121D07
:100420001160234930310968224A40321160204965
:1004300034310968121D11601D4938310968121DD7
:1004400011601B493C310968121D11601849403187
:100450000968121D116002E0117809070ED10078B9
:10046000C0F30310032803D0042801D0052805D1C8
:10047000D5F85802104900F04F0008600A48743857
:10048000016841F470010160BFF34F8FBFF36F8FBC
:100490000B490A480860F0BDE00F00F00DF0ADBA5E
:1004A00000C007403C050040FCED00E01056004055
:1004B0000404001020C50040E40E00400090D0036A
:1004C0002C2B002004220249024801F063B90000ED
:1004D000C44400200080004004220249024801F088
:1004E00059B90000D0440020009000400422024985
:1004F000024801F04FB90000DC44002000A0004099
:1005000006220249024801F045B90000E8440020F3
:1005100000A0014006220249024801F03BB9000058
:10052000F444002000B001402DE9F84F564E00275A
:100530000D460446A6F13408ADF80070DFF84CB162
:10054000DFF84C91DFF84CA1002C72D0042D70D94B
:100550006188208849BA40BAADF80010B0F5804FE4
:100560004FD009DCB0F5805F0DD0B0F5005F19D039
:10057000B0F5405F7BD123E0B0F5A04F4DD0B0F592
:10058000C04F74D156E0BDF80000062879D120791B
:10059000B0B301218BF80010FFF756FE3E4801F082
:1005A00063FD64E0BDF8000006286AD1207938B305
:1005B0008BF80070FFF75EFE374801F047FD56E00C
:1005C000BDF8000009285CD12F4898F8002008F1F8
:1005D0000101543800F042FE217989F80410617954
:1005E00089F80510A17989F80610E17989F80710D2
:1005F000217A89F808109AF80010491C8AF800102E
:1006000035E0BDF8000008283BD16068E17900BA08
:1006100020F0FF000843306029E0BDF80000082802
:100620002FD16068E17900BA20F0FF000843F06044
:100630001DE023E0BDF80000082822D19AF8001040
:100640001148491C8AF8001098F8002008F10101AF
:10065000543800F003FE217989F80910617989F88E
:100660000A10A17989F80B10E17989F80C10BDF80E
:1006700000000444BDF80000281A85B2002D7FF464
:1006800063AFBDE8F88F000090430020C22A00202D
:10069000A82A0020712A0020F83E02000448017FA9
:1006A00004480029024901D003F00DBA03F07CB9D7
:1006B00074440020002000400FB41CB50246002006
:1006C00007AC00290BD0491ECDE90021054B6A4635
:1006D0002146069800F02AF8009A002111701CBCEF
:1006E0005DF814FB8F0B020002E008C8121F08C15E
:1006F000002AFAD170477047002001E001C1121FA3
:10070000002AFBD1704700000121202803DA814034
:100710000548014003E0402802DA2038814009B151
:100720000120704700207047FC06FFBC2DE9FF4FF9
:100730008DB00F460546002606E025280BD0DDE9E2
:100740000F1290476D1C761C28780028F5D111B047
:100750003046BDE8F08F0024A246A1460122EC49B4
:1007600000E0044315F8013F203B02FA03F0084281
:10077000F7D128782A2810D06FF02F022878A0F11E
:100780003001092914D80AEB8A0102EB410144F037
:10079000020400EB010A6D1CF0E701CF5FEA000ADA
:1007A00003D544F40054CAF1000A44F002046D1C5D
:1007B00028782E2817D115F8010F44F004042A28B0
:1007C0000ED06FF02F022878A0F1300109290AD845
:1007D00009EB890102EB410100EB01096D1CF2E715
:1007E00057F8049B6D1C28786C280FD006DC4C2829
:1007F00017D068280DD06A2814D104E0742810D0CE
:100800007A280FD10DE044F400140AE044F4801477
:1008100001E044F440146978814202D104F5801467
:100820006D1C6D1C2A786E2A1FD00CDC632A31D017
:1008300004DC002A8BD0582A11D1A3E0642A68D0A6
:10084000692A0CD165E0732A2ED004DC6F2A73D09C
:10085000702A04D19BE0752A6FD0782A6ED010469A
:10086000DDE90F129047761C50E1C4F302500228D4
:1008700006D0032809D0042801CF09D0066045E13D
:1008800001CFF117C0E9006140E101CF06803DE1F1
:1008900006703BE117F8040B8DF8000000208DF87E
:1008A0000100EB46012003E057F804BB4FF0FF3096
:1008B00061074FF0000102D40DE008F10101884604
:1008C00049450FDA8045F8DB1BF808100029F4D100
:1008D00008E008F1010188468142FADB1BF80810A4
:1008E0000029F6D1DDE90F23AAEB08008146214655
:1008F00000F036F9304400EB080604E0DDE90F12A1
:100900001BF8010B9047B8F10108F7D22146484681
:10091000F7E00A21C4F302534FF0000B0891022BB9
:1009200004D001CFC117032B09D00AE0FF1D27F027
:100930000707F7E8020108E032E01FE020E000B21C
:10094000C117042B01D140B2C117031E71F100037E
:1009500007DA4FF0000CD0EB0C006CEB01012D23FB
:1009600002E0230504D52B238DF82430012303E076
:10097000E30701D02023F7E7984658E00A2110E06A
:1009800010210EE010204FF0000B08900CE0102119
:100990004FF0000B44F004044FF00809089103E005
:1009A00008214FF0000B0891C4F30253022B04D02E
:1009B00001CF0021032B06D006E0FF1D27F007071B
:1009C000F7E8020103E080B2042B00D1C0B24FF07F
:1009D000000823072BD5702A07D0DDF820C08CF043
:1009E000100C5CEA0B0C05D00EE040238DF824308F
:1009F000012308E050EA010306D030238DF82430AB
:100A00008DF8252002239846DDF820C08CF0080CD4
:100A10005CEA0B0C0BD150EA010301D1630706D548
:100A200030238DF824304FF00108A9F10109582A2C
:100A300004D038A20B9208AA0A920BE03AA2F9E776
:100A40005B46089AFEF7C0FE0B9B9B5C0A9A521EFF
:100A50000A92137050EA0102F2D10A98ADEB00003D
:100A600000F1200B600702D524F4803401E04FF040
:100A70000109D94502DDA9EB0B0000E0002000EBE5
:100A80000B0141440890AAEB010AE00306D4DDE91A
:100A90000F232146504600F063F806444FF000094A
:100AA00008E009A911F80900DDE90F12904709F1E2
:100AB0000109761CC145F4DBE0030CD5DDE90F2309
:100AC0002146504600F04CF8064404E0DDE90F12E0
:100AD00030209047761C0899481E08900029F5DCC4
:100AE00008E00A980A990078491C0A91DDE90F127A
:100AF0009047761CBBF10001ABF1010BF1DC214604
:100B00005046DDE90F2300F019F806446D1C1BE682
:100B100009280100303132333435363738396162D3
:100B20006364656600000000303132333435363797
:100B30003839414243444546000000002DE9F04168
:100B4000044600251E461746880404D405E03946AD
:100B50002020B0476D1C641EF9D52846BDE8F08101
:100B60002DE9F041044600251E469046C80301D5F4
:100B7000302700E02027880404D505E041463846A8
:100B8000B0476D1C641EF9D52846BDE8F0814A685F
:100B9000002A06D00A68531C0B6010704868401E7B
:100BA000486070472DE9FC470025178806461580E8
:100BB00090F82D001446894630B13A462146484601
:100BC00000F00CFB050009D1B0784FF00C0A18B307
:100BD0002088C846001DB84202D95046BDE8FC87AF
:100BE000684679DF0028F9D12088032108F8001031
:100BF00020881921401C80B2208008F8001020882D
:100C0000401C80B2208000EB0801BDF8000002F01B
:100C1000D2FF218808442080F0780222C8B12188C0
:100C200096F9033001F1030C4846BC45D5D842542F
:100C300021884FF0010C491C89B2218000F801C0C5
:100C40002188491C89B2218009F801302088401C84
:100C500020807068B8B1218890F9003001F1030C50
:100C60004846BC45B9D8425421880A22491C89B259
:100C7000218042542188491C89B2218009F8013021
:100C80002088401C2080308950B1CDE900474B4678
:100C90000622022106F1080002F0DAFF05009DD1CC
:100CA000308A50B1CDE900474B460722032106F1B7
:100CB000100002F0CDFF050090D1308B50B1CDE98E
:100CC00000474B461522142106F1180002F0C0FF20
:100CD000050083D1306A30B13B462246494600F0D8
:100CE0002DFC0500DBD1706A30B13B4622464946F7
:100CF00000F0A6FE0500D2D196F82C0038B13B4694
:100D000022464946304602F0C9F80500C7D130787E
:100D100038B13B4622464946304600F0C3FE050046
:100D2000BDD128465AE7000030B51948A5B0006883
:100D300023901848807C8DF88E0021A86DDF592003
:100D4000ADF878000DF1850006242090ADF87C40C8
:100D50003C216846FEF78DFB02208DF8000001253E
:100D60001EA88DF8025009908DF803403C210FA871
:100D7000FEF77FFB23A81490ADF84C500FA96846EE
:100D800000F090F9002801D000F046F825B030BD01
:100D90001C3F02003C4300201FB500200290009041
:100DA00003908DF8080001908DF800004021ADF807
:100DB0000C00ADF80A10684673DF08B100F02CF89B
:100DC0000120FEF7C9FF1FBD0BA1012001F070FD3E
:100DD00001F0C8FC01F0CAFC0028FBD1BFF34F8F23
:100DE0000B4801680B4A01F4E06111430160BFF355
:100DF0004F8F00BFFDE700004150505F4552524FFA
:100E0000523A4552524F523A466174616C0D0A0093
:100E10000CED00E00400FA050EB500210091CDE9CB
:100E200001106A4644F20100FFF7CEFF0EBD00003C
:100E3000084B5B6823B12AB120B10068037C1BB169
:100E400008207047072070470023037441744261F3
:100E500018467047F82A00202DE9F04707469846C3
:100E60001446894690074FF0000526D12CB301F0B7
:100E7000F5FE134E06F11000C6F80C8005704570A3
:100E800080F8029044607560357075701420FEF72C
:100E90009DFF07211420FEF7D0FF1420FEF7ACFFC2
:100EA0000848076007211120FEF7C7FF0548001F0B
:100EB0000068B0600020BDE8F0870720FBE7000075
:100EC000E82A0020081501402DE9FC47DFF878905A
:100ED000D9F8043073B368B3052902D20720BDE8FE
:100EE000FC87436933B3437C012B25D0002704469C
:100EF0000025884616468DF80050684600F038F800
:100F000001A802F08DFEC8B1012101700F494460B3
:100F10000968C0E90218C0E904769DF8040089F860
:100F200001009DF8000000F047F81420FEF77AFF5A
:100F30002846D4E70820D2E70F46D8E704259DF8D5
:100F4000000000F039F8F3E7F82A0020041501400A
:100F50000649496839B130B1416921B100210174B4
:100F6000022102F01FBC082070470000F82A002070
:100F700030B5EFF3108172B60D4A9468012324B1A5
:100F80000370002900D162B630BD93604FF0E023BA
:100F9000D3F88051074C25401560C3F88041D3F841
:100FA000844154605A17C3F8842100220270E8E794
:100FB00040450020FC06FFBC0B498A68002A11D07E
:100FC00000280FD1EFF3108072B60B684FF0E022CB
:100FD000C2F800314B68C2F8043100228A60002850
:100FE00000D162B670470000404500202DE9F04175
:100FF000064608680C46411C4FF0A0474FF001051B
:1010000006D005FA00F1C7F80815206801F0DAF9F2
:101010006068411C02D0002101F0C1F930792049FB
:1010200001EB4010A169007F00283068C0F824154A
:1010300025D0607D227D31681043C1F86C05D4E96C
:1010400000123068C0F80C15C0F8142524E0A06820
:10105000411C02D0002101F0A2F9E068411C05D03A
:101060008540C7F80855E06801F0ACF9D4E90212F0
:101070003068C0F80825C0F81015BDE8F081607D23
:10108000217D32680843C2F86C05D4E9001230684B
:10109000C0F81425C0F80C15207D0128D7D0ECE746
:1010A00074440020F0B50C4693B01F210726ADF81C
:1010B0000010ADF80410002750B1C17849070DD5D4
:1010C0006A4602A9FFF76EFD002808D102AD02E0D2
:1010D0000025ADF800706CB1E07810B1304613B067
:1010E000F0BD01AA0AA92046FFF75CFD0028F6D151
:1010F0000AAA02E00022ADF80470BDF80400C3B2F1
:10110000BDF80000C1B2284672DFE8E770B50546B9
:1011100001461C220F48FEF793F90F4C002626705B
:10112000286830B1016861604068A060201D7ADFE6
:1011300002E00948001D7BDF00280AD14FF6FF704E
:1011400060806670BDE87040044A00210448FFF7E3
:101150006FBE70BDEC430020C82A0020C13B0200D6
:101160003C40020010B5038800221949194C102B8D
:1011700009D0112B15D0122B23D0502B26D1BDE82E
:10118000104001F0EFBC83884B800369CB6040695D
:1011900008614A70E089002818D1BDE8104000F0CD
:1011A00013BA4FF6FF7048800B484A700068FFF78B
:1011B000CFFE00280AD0A169002907D0BDE8104061
:1011C00008478268CA60C0680861E6E710BD000091
:1011D000C82A0020EC4300203C4002007CB50546B4
:1011E00008880C460930904201D90C207CBD684625
:1011F0006DDF0028FAD121880820685420881B213F
:10120000401C80B2208029542088401C80B220805D
:101210002844DDF801100160BDF8051081802088A8
:10122000801D80B220809DF80010490800D0012167
:1012300029542088401C208000207CBD10B5044625
:1012400001F0DEFB2046FFF78DFF2146BDE8104090
:10125000014800F085B800003C43002086B0ADF89E
:101260001020828AA2F57F43FF3B15D00022009216
:1012700001230192029203928DF802304389039177
:1012800004A90291ADF80030ADF80420808A6946C7
:10129000A6DF80B206B070470820FBE7007800F0B8
:1012A0000100704700B5134889B0002340680790DB
:1012B0005022114907A801F0A5FE08B1FFF7ACFDC7
:1012C0006A460121002001F087FE08B1FFF7A4FD66
:1012D0001720ADF81000684601F02EFE08B1FFF7A8
:1012E0009BFD064801F01EFE002801D0FFF794FD8B
:1012F00009B000BD1C3F0200EC4200203D1202007C
:1013000030B5044685B04FF6FF70A082134B1248EB
:101310000D46E0610FCB8DE80F0004F11201684625
:1013200063DF002816D1A07C8DF8120041F2265010
:10133000ADF81000224604A90120A0DF002809D141
:101340002946204602F0EBFC002803D1294620461E
:1013500002F054FD05B030BD5914020040400200B7
:101360000A88502A0CD008DC012A06D0102A05D0A1
:10137000112A02D14FF6FF71818270478988FBE7FD
:10138000024800210160416070470000DC2A002013
:10139000002901DA00207047026811440160012031
:1013A00070470000F8B5461C00208DF800000D467F
:1013B00001246846FFF7DCFD114A10682860D2E975
:1013C00000109568081A2B1A701C5B1C98420FD9E4
:1013D00063B10C480C4B294000681B6802EB81018B
:1013E00063F39F20C8601068401C1060002401E077
:1013F000881910609DF80000FFF7DEFD2046F8BD5B
:101400004C46002074400200142B0020034803C8FF
:10141000814201D101207047002070474C460020D6
:101420000249084490F93000704700001C44002035
:1014300070B5084C050009D010342168002907D088
:1014400008682060496828468847F6E70834F4E7CA
:1014500070BD00000844002082B00C480021ADF8A7
:101460000010417820290FD1817802290CD1B0F8E1
:10147000031049BAADF80010BDF8001002B00839E9
:1014800089B20930FFF750B802B070475C430020C2
:101490002DE9F05F26484168F1B3DFF898B00E6897
:1014A0008146DBF8004087688078E11B21F07F45AA
:1014B000ED1CB0B9DFF880804FF48030C8F84403E9
:1014C000C8F804031120FEF781FC1120FEF794FCFC
:1014D0004FF0010AC8F800A02F2000F0DFFB89F8C8
:1014E00002A0B54200D23546124BE8193C3320F039
:1014F0007F401860DBF800105A46091B21F07F413D
:10150000001B20F07F40C91C81420FD91068186071
:101510002F2000F0C3FB00E004E0BDE8F05F1120E5
:10152000FEF780BCBDE8F05F01F098BBBDE8F09F1E
:10153000E82A002004150140001001402DE9F04187
:1015400017880646B81D14460D46984202D90C204D
:10155000BDE8F0813188072206290AD34FF4486C90
:101560004FF6FF73614501D9994202D17088062870
:1015700001D21046ECE7604501D99842F9D1994271
:1015800003D0984201D08142F3D80520E855208845
:101590001221401C80B2208029542088401C80B237
:1015A00020804119308802F006FB2188084480B26F
:1015B00020804119708802F0FEFA218808442080BA
:1015C0000020C5E7FFF728BCF8B5134800F004F980
:1015D000114D0026114C0C3D30B16169B9B10120AB
:1015E0008DF80000684611E0287820B1616971B17A
:1015F0008DF80060F6E7687858B1A16808480022C5
:101600000068FFF761FC10B1A16901B188472E7035
:10161000F8BD6168F2E70000D42A0020EC43002006
:101620003C40020010B5064B05E000BF10F8014B2E
:101630005440491E1A5D0029F8DC104610BD000018
:10164000243F02000E4910B50A784C780023A242CC
:1016500012D0521CD2B20A70022A00D10B70084A72
:101660000B78183252F8232002608868104420F06A
:101670007F408860012010BD0360002010BD000085
:10168000E82A002010B50446807EFF2801D000F033
:10169000CCFE002060762071201D2168BDE810403E
:1016A00008470000F8B51C4C2078002832D0E068CC
:1016B000002658B10025607800282BD1684648DF05
:1016C000052805D030B1FFF7A7FB0AE00125F2E7B6
:1016D000012606E0009800F063FB216909B100983B
:1016E00088479DB96078002814D16088ADF8000063
:1016F0006946A06861DF052803D020B1FFF78CFBA5
:1017000004E0012502E0D4E902018847002ED2D08E
:10171000002DE6D0F8BD0000182B002070B50E4655
:101720000446007918494FF4A27501EB4010017F7F
:101730002068A1B14FF4887101F05BF94FF490710A
:10174000206801F056F94FF49271206801F051F9C8
:101750002946206801F04DF90C49206809E04FF452
:101760008E7101F035F92946206801F031F90849F8
:101770002068C0F80413206800F03EFB3146BDE845
:10178000704000F01DBB00007444002010030200F4
:10179000800002002DE9F8430025164688460446DD
:1017A0002F4614E04FF4A07000EB85004FF4803119
:1017B0002258A9404AB1D4F804230A4205D0275040
:1017C00021580091D8E9002190476D1CEDB2B54237
:1017D000E8D3BDE8F8830000054940880A889042B4
:1017E00004D34988884201D80120704700207047FF
:1017F000CC2A00202DE9F043264CA4F110092278D0
:10180000D9F8048099F80350404694F801C0D9F8FB
:10181000086031E002EB42036168521C01EBC30136
:10182000A378D2B2934200D100220B78022B02D0CF
:10183000032B21D11DE003464F68194603E0B9424E
:1018400003D00B46C969B9B1F9E7A9B18B4205D1FB
:10185000C06918B9104E0125B56000260F68C96926
:10186000D96149B10B683B440B6005E00174C06964
:1018700000E000210028F9D19445CBD1C9E9010647
:1018800089F80350404502D00120BDE8F0830020D4
:10189000FBE70000F82A0020001001402DE9F0418C
:1018A0002A4F0446002607F11005D7F804803EE0D1
:1018B00002D02046E4691DE02878696800EB400208
:1018C000401CC0B201EBC2012870AA78904200D13E
:1018D0002E700A784868012A2BD1027C4ABB8A689C
:1018E0004260CA6882600A69C26049698161F978A8
:1018F00001B146604368BA68DFF854C0991A21F014
:101900007F41614502D28268114406E0D11A8268A3
:1019100021F07F418A4202D9511A016000E006603D
:101920004660012186600174C66101F017FF002C3A
:10193000BED1287869788842BED17968414502D005
:101940000120BDE8F0810020FBE70000E82A00202C
:10195000FFFF7F001FB501248DF8004033480026AB
:101960004DF250050660132000F022FD192000F012
:101970001FFD0020FEF7F0F9142000F019FD1420DF
:1019800000F045FD002215200096234611460196E1
:1019900000F0C6FC01F06CFFFEF7ACFA002000F08E
:1019A000E1FF08B1FFF738FA01F0BAFCFDF7E4FFF8
:1019B000022000F0DCF80B2000F029FD642000F08C
:1019C000D6F81B488079FEF7C7F91A48FEF722F9C6
:1019D00019491A4AD1E90C01CDE90201164802A9B8
:1019E000183000F065FB08B1FFF716FA124808231B
:1019F0002A4603211830009400F044FB022000F036
:101A0000B6F80B2000F003FD642000F0B0F801F000
:101A1000A3FB00BF01F034FB00F0A8FE0028F9D1C1
:101A20003EDF0028F6D0FFF7F7F9F3E7E42A0020BD
:101A3000682A0020102E0020D83E020081330200C8
:101A400070B5144682880E4605462088111D014453
:101A5000921C994201D8FE2A01D90C2070BD521C5B
:101A600032542088FF21401C80B2208031542088CD
:101A7000401C80B220808119288802F09CF82188BF
:101A8000084480B22080AA8842B1A96841B130449C
:101A9000FDF7D6FC2088A98808442080002070BD6E
:101AA000072070BDF8B50E46017814460546012999
:101AB00001D1687830B12088821C9A422DD8012942
:101AC00002D006E00720F8BD69780144891C9942DC
:101AD00023D8181A801E87B2ADF800702188B01C78
:101AE000084469467DDF0028EDD12878022805D119
:101AF000BDF80010B94201D809210AE008210128E7
:101B000005D16878B84202D8ADF8000001E0ADF820
:101B10000070BDF80000FE2801D90C20F8BD228815
:101B2000401CB0542088401C80B220803154208852
:101B3000401C2080BDF80010084420800020F8BD23
:101B4000C20800F007030120895C984008407047F4
:101B500000F180400068002800D00120704708B5DF
:101B600000F18040002101600068009008BD4FF442
:101B70007A71484300F006B84FF47A71484300F098
:101B800047B8000000283ED01F49204A096800BF1E
:101B900000BF00BF00BF00BF00BF00BF00BF914239
:101BA0002FD000BF00BF00BF00BF00BF00BF00BFFD
:101BB00000BF00BF00BF00BF00BF00BF00BF00BF2D
:101BC00000BF00BF00BF00BF00BF00BF00BF00BF1D
:101BD00000BF00BF00BF00BF00BF00BF00BF00BF0D
:101BE00000BF00BF00BF00BF00BF00BF00BF00BFFD
:101BF00000BF00BF00BF00BF00BF00BF00BF00BFED
:101C000000BF0138C3D170472C2B00200024F40002
:101C100000283ED01F49204A096800BF00BF00BF0E
:101C200000BF00BF00BF00BF00BF91422FD000BF68
:101C300000BF00BF00BF00BF00BF00BF00BF00BFAC
:101C400000BF00BF00BF00BF00BF00BF00BF00BF9C
:101C500000BF00BF00BF00BF00BF00BF00BF00BF8C
:101C600000BF00BF00BF00BF00BF00BF00BF00BF7C
:101C700000BF00BF00BF00BF00BF00BF00BF00BF6C
:101C800000BF00BF00BF00BF00BF00BF00BF0138E2
:101C9000C3D170472C2B00200024F40000283ED034
:101CA0001F49204A096800BF00BF00BF00BF00BF36
:101CB00000BF00BF00BF91422FD000BF00BF00BFD8
:101CC00000BF00BF00BF00BF00BF00BF00BF00BF1C
:101CD00000BF00BF00BF00BF00BF00BF00BF00BF0C
:101CE00000BF00BF00BF00BF00BF00BF00BF00BFFC
:101CF00000BF00BF00BF00BF00BF00BF00BF00BFEC
:101D000000BF00BF00BF00BF00BF00BF00BF00BFDB
:101D100000BF00BF00BF00BF00BF0138C3D1704784
:101D20002C2B00200024F40070B50F4C00252078E7
:101D300008B1852516E00021A16061602161E160A4
:101D40004FF0E020D0F80001012610F0010F03D180
:101D50000721002000F034F801F086F908B90348A3
:101D600006602670284670BD084400201805004013
:101D700038B500208DF800006846FFF7F9F8074CE9
:101D8000207808B9FFF7D0FFE068401CE060012030
:101D9000A0709DF80000FFF70FF938BD084400203F
:101DA000002801D1FFF744BB704700F01F0201215A
:101DB00091404009800000F1E020C0F88011704798
:101DC0004907090E002806DA00F00F0202F1E022AE
:101DD00082F8141D03E000F1E02282F8001400F004
:101DE0001F02012191404009800000F1E020C0F86D
:101DF0008012C0F800117047000B40B270470121FB
:101E0000B1EB507F01D101207047002070470121C4
:101E1000B1EB507F01D101207047002070470000D6
:101E20002DE9FC5F0C464179DFF864A107460AEB17
:101E30004116307E10B10820BDE8FC9F3260207B47
:101E400001254FF0A048012805D8227805FA02F0B4
:101E5000C8F80C0502E0207800F0E7FA2178A946DE
:101E6000890001F1A041C1F800576578FF2D07D026
:101E700009FA05F0C8F80C05284600F0ADFA01E0B3
:101E80004FF0FF35A0784FF0000BFF280AD000225A
:101E900080465B46CDF800B01146CDF804B000F0A6
:101EA00063FA01E04FF0FF38E078FF2804D000F03B
:101EB000BCFAE07800F090FA7979E0780AEB411109
:101EC0008876B8790028386828D02278C0F80825A4
:101ED000C0F80C55C0F81085A168C0F82415227B05
:101EE000617B01B10121012A04D0022A05D0032A15
:101EF00008D105E041F0020104E041F0040101E0F5
:101F000041F00601C0F854156179C0F8C015316878
:101F100011B14021C0F80413072129E02378C0F84B
:101F20000835C0F80C55C0F81085A168C0F8241514
:101F3000237B617B01B10121012B04D0022B05D051
:101F4000032B08D105E041F0020104E041F0040157
:101F500001E041F00601C0F854157B7961790AEB84
:101F60004312D176316811B10421C0F804134946F7
:101F7000C0F80015306820B1217997F90400FFF707
:101F80001FFF584686F819B086F8189054E70000ED
:101F9000004500201FB5069C00918DF80420029397
:101FA0008DF80C400022694600F002F804B010BD24
:101FB0002DE9F04113460E4641791A4A002402EBFE
:101FC00041114A7E12B11120BDE8F0810D68012255
:101FD0001DB113F0140F00D14A7696E8A05001F11C
:101FE000080888E8A0504D7F25F003054D778D7EC9
:101FF000FF2D04D04FF0A047AA40C7F80C258279E6
:102000002AB100683246BDE8F04101F004B91BB1C5
:1020100000204876062403E00068324601F0BEF84E
:102020002046D1E70045002030B54FF480340568E4
:102030008C4013B1C5F8044301E0C5F808430068BB
:1020400000EB8100C0F8402530BD0000026801218E
:1020500011610079034A00EB400002EB800001723D
:1020600070470000C4440020016801220A60007922
:10207000034A00EB400002EB80000221017270472E
:10208000C4440020F0B40468049E40F20115D4F862
:1020900000728D40AF43C4F800720468D4F8005257
:1020A0001D43C4F800523346F0BCFFF7BDBF00002B
:1020B000F8B504460D460079204900EB400001EBDD
:1020C0008006307A08B10820F8BD3AB132606868FD
:1020D0007060002003464FF4A07709E00720F8BDA8
:1020E000226807EB800153505158401CC0B2009148
:1020F00061798142F4D82068E978000B40B2FFF79B
:102100005FFE20686978D0F8042561F30102C0F809
:1021100004252068A978D0F8082561F30102C0F8E9
:10212000082520682978D0F8102561F30302C0F84B
:102130001025012030720020F8BD0000C4440020AA
:102140002DE9F04105460079164F904607EB401403
:102150000E46E07E10B10820BDE8F081707F207748
:102160002846FEF743FF5FEA08006060316921609E
:1021700003D0317F2846FFF7D1FA287907EB4010CA
:10218000007F0028286801D0082100E00421C0F861
:1021900000150020E0752076A0750121E176A0767B
:1021A000DAE70000744400202DE9F0470546007985
:1021B0003F4E904606EB40140F46207F18B108466C
:1021C000FFF71DFE30B1284600F074F820B1112051
:1021D000BDE8F0871020FBE784F81680A760002791
:1021E000A78228794FF0010806EB40143E46207F75
:1021F0000028286825D04FF49079494600F0F9FB73
:102200004FF4AC7A5146286800F0F3FB2868A17DB2
:10221000A268C0F84425C0F848152868C0F80880AE
:102220006068F0B94946286800F0DEFB80465146F8
:10223000286800F0D9FB58EA0001F3D058BBA77515
:102240000FE04FF48E7A514600F0C2FB2868C0F8C8
:1022500008802146286801F080FB61684FF4807097
:1022600089B13046B4E75146286800F0ACFB10B99C
:10227000A08A4845F7D1A08A484505D0214628685C
:1022800001F06BFB00E08146A08AA17D8842EAD381
:10229000A08A484501D10F26D1E75146286800F0B1
:1022A00092FB0028F9D02868C0F80C80C7E700002E
:1022B000744400200079044901EB4010807D00281F
:1022C00000D00120704700007444002070B504461F
:1022D00000791149002601EB401520682A7FC0F8DB
:1022E0000065686888B1207901EB4010007F002804
:1022F000206801D0094901E008498C39C0F8081369
:102300002068FFF779FDFFF750FD204600F062FCE2
:10231000EE766E6070BD0000744400201003020071
:1023200070B541EA4201DDE904564FF0A04441EAAC
:10233000830141EA052104EB800041EA0641C0F82F
:10234000001770BD70B541EA4201DDE904564FF057
:10235000A04441EA830141EA052104EB800041EAFF
:102360000641C0F8001770BD70B541EA4201DDE9D1
:1023700004564FF0A04441EA830141EA052104EBF1
:10238000800041EA0641C0F8001770BD1CB500216D
:1023900000910B4601220191FFF7D4FF1CBD1CB533
:1023A00000220B46009211460192FFF7CBFF1CBDA5
:1023B0001CB5002100910B46012201911146FFF747
:1023C000AFFF1CBD1CB5002100910B4601220191FD
:1023D0001146FFF7B7FF1CBD1CB5002100910B464D
:1023E000012201911146FFF7BFFF1CBD4FF0A04233
:1023F00002EB8000D0F8002722F44032C0F800271A
:10240000D0F8002742EA0141C0F8001770474FF0AA
:10241000A04201218140C2F80C1570474FF0A04244
:1024200001218140C2F8081570474FF0A0420121F8
:102430008140C2F8081570474FF0A042D2F8043529
:102440000121814021EA0300C2F808051940C2F8C1
:102450000C15704718B5084B6C4601441B68009377
:1024600006E000BF54F82030D3F81035401C08C2F5
:102470008142F7D818BD000050400200034908B55A
:102480000844002101600068009008BD0060004021
:1024900002494058012800D00020704700600040E9
:1024A000004870471925020030B5184C054689B020
:1024B000207828B16078854202D1002009B030BD73
:1024C000202213496846FCF7BBFF00208DF814005A
:1024D000092000900A2001900B2003900C2002900C
:1024E0004FF0EB7006900948001DFFF7EFFE0DB1AD
:1024F000002200E0074A05486946001DFFF720FE5C
:102500000028DBD1012020706570D6E7082B002061
:1025100054400200993902002DE9F04FC1B00D007E
:102520004FF0000140914D984B991C46174601EB26
:10253000000B01D00A2000E00020804600F092FC51
:1025400000287CD16E46BCB9409840AA3118284674
:1025500001F0C2F9002872D03846FCF795FFC22876
:1025600000D9C220054640982A4630443946FCF737
:1025700067FF4098284440904FF0200A409901EBB3
:10258000080231320DEB01050DEB0206002002E0DE
:1025900005F801AB401C4045FAD300275C4508D341
:1025A00005F801AB05F801AB05F801AB06F801AB86
:1025B0002DE04B98844202D24A98005D02E0211A35
:1025C0004C98405C2B46814602460121880022FA45
:1025D00000F000F00F00092801D9373000E030305A
:1025E000C1F1010C491E03F80C00EFD29D1C05F847
:1025F00001ABFCF721FF016811F8090010F03E0F54
:1026000001D0484600E02E2006F8010B641C7F1C18
:10261000102FC3D30D2030700A20707085F800A0F1
:102620004099684641444331409100F021FC30B16B
:1026300000F018FC18B9002040905C459ED341B0D2
:102640002046BDE8F08F2DE9F043C7B000251C46B9
:10265000904689464E9F459500F004FC00287AD1AB
:10266000459805AE311845AA484601F035F90028CD
:1026700035D0072F27D2DFE807F004121B35424F71
:102680005D004046FCF700FF054645982918FF29E4
:1026900019D830442A464146FCF7D2FE13E045984B
:1026A0002368C0F5807130444246FEF705F809E022
:1026B0006068009045982368C0F5807130444246B8
:1026C000FDF7FAFF0546294645A8FEF761FE459944
:1026D00078B3B1F5807F3ED805A800F0C9FB47B0BC
:1026E000BDE8F083D4E90101CDE9000145982368F4
:1026F000C0F5807130444246FDF7DEFFE2E7201D61
:1027000007C88DE8070045982368C0F580713044FC
:102710004246FDF7D1FFD5E7201D0FC88DE80F0019
:1027200045982368C0F5807130444246FDF7C4FFE8
:10273000C8E710E004F1080001AD0FC885E80F00FC
:102740006068009045982368C0F580713044424627
:10275000FDF7B2FFB6E70020C1E700000048704770
:10276000472602000120FFF79FBE00002DE9F04F31
:1027700087B0FEF74BFE18B1002007B0BDE8F08F20
:10278000454ED6E9014704EA070006EB8000A14662
:10279000641CC5680CE000BFC5F3891000EB9550C0
:1027A000044404EA070006EB8000A146C568641CE7
:1027B000A807F1D005F003004FF0000B022805D068
:1027C000AA0A01A8C5F38313002153E004EA070015
:1027D00006EB800004F1010A0AEA0704C268381B0C
:1027E00080004FEA9558001DC5F38913804521D913
:1027F00029490C3138B106EB840400F0FF0CA8EB3A
:1028000000000C3404E00C46002108F0FF0C0846E0
:10281000C0B2CDE90210CDE9004CD6F81444C5F39E
:10282000C2005946A047404511D108F103080AEB00
:1028300098042AE0002106EB84000C300090CDE9DA
:1028400001810391C5F3C200D6F81444EAE760F3AE
:102850008F1509EA070006EB8000C56016E000BF8F
:1028600004EA070C06EB8C0C491CDCF80CC040F8A1
:1028700004CB641C9942F3D3C5F3C2000093D6F88D
:10288000105401AB5946A84700B17460FEF7BEFD75
:1028900080F0010071E700004C460020034AFF234E
:1028A000936000231360536000F054B84C4600203E
:1028B0002DE9F8430F4F884604460025694628460F
:1028C000BE68FEF76FFD002812D00B48002140685B
:1028D00061F38200009964F3C50001EA060265F322
:1028E000891007EB820268F39F20491CD060009199
:1028F000BDE8F8834C460020744002002DE9F843FF
:10290000124D884604460127914669463846AE680E
:10291000FEF748FD002817D00D480021806861F3BC
:102920008200009964F3C50001EA060267F389108A
:1029300005EB820268F39F20491CD0600091314072
:1029400005EB8101C1F80C90BDE8F8834C460020EE
:1029500074400200024A02F5826203C2704700001E
:102960004C46002070B506460020FFF79DFD040090
:1029700008D1FFF795FD0546FFF7F0FE32462946E0
:10298000FFF78CFF204670BD024A1060101D0160E9
:10299000704700002C76004002494058002800D0C3
:1029A0000120704700700040034908B50844002228
:1029B00002600068009008BD007000404058002888
:1029C00000D0012070474058002800D001207047F7
:1029D00008B5002242504058009008BDD0F80403CA
:1029E000084000D0012070474058002800D0012046
:1029F000704708B5002242504058009008BD0000C2
:102A000070B53F4E04460088758888B03B2847D093
:102A10000DDC022848D0102815D011281ED013280C
:102A20001AD100231A46852128467FDF31E051283C
:102A30003ED0522828D055285ED056280CD1A088E8
:102A4000132176DF25E02FA10320FFF731FF0220BD
:102A5000FDF782F9A088708008B070BD2FA1032017
:102A6000FFF726FF4FF6FF707080FDF703FC32483A
:102A7000FFF7ECFAFEF790F9304900200880304962
:102A8000088030490870E7E700231A4619462846AF
:102A9000A9DF0028E0D008B0BDE87040FEF7BCB95F
:102AA000A088132176DFF4E7A088002167DFF0E734
:102AB0001022A11D04A8FCF7C3FC9DF810100029EA
:102AC000CAD09DF81800042803D0062801D0052894
:102AD000C2D102290ED001208DF800004FF4C17040
:102AE000ADF80400A0886946A8DF0028B4D0FEF73E
:102AF00093F9B1E70220EFE7A0881721ADDFC8E71F
:102B0000C22A0020434D31383A494E464F3A436F6E
:102B10006E6E65637465640D0A000000434D3138C4
:102B20003A494E464F3A446973636F6E6E656374FB
:102B300065640D0A00000000F83E0200BC2A002077
:102B4000BE2A0020C02A00200078002807D10448AF
:102B50003B21408876DF002801D0FEF75DB9704741
:102B6000C22A002070B5841D027C164804F10C01B5
:102B70000E4600F8012BFCF763FC134D2088E98911
:102B8000884202D16189022907D010494A889042BF
:102B900017D1C869BDE8704000473046FEF77EFB9C
:102BA00018B1BDE87040FEF70FBD09480068FEF798
:102BB000CFF9002805D0A969002902D0BDE87040EE
:102BC000084770BD5C430020EC4300203C430020DC
:102BD0003C40020070B5034600791B4901EB4010F0
:102BE0001968027F4FF0FF30002AD1F80C25D1F888
:102BF0001465D1F80855D1F8104504D0C1F80C057A
:102C0000C1F8140503E0C1F81405C1F80C051968F2
:102C1000C1F80805C1F81005501C02D01046FFF796
:102C2000B5FB701C02D03046FFF7B0FB601C02D031
:102C30002046FFF7ABFB681C04D02846BDE8704077
:102C4000FFF7A4BB70BD0000744400204FF080501B
:102C5000D0F80C01800200F10050704770B50126D9
:102C600070044FF0E0210025C1F88001084C4010AD
:102C7000C4F84803C4F8080366602F20FFF70EF875
:102C8000A660044C2F20A560FFF708F8A57070BD62
:102C900000100140E82A002070B50546C87D0C46AA
:102CA00000284FF4847128460AD0FFF791FED5F82A
:102CB0001805627EE1688854607E401C607670BDB5
:102CC000FFF786FED5F8180570BD1FB501238DF8F6
:102CD00000308DF808100192D0E900126846904744
:102CE0001FBD000010B50446FDF70EFD40B1002CDD
:102CF00009DA04F00F0000F1E02090F8140D06E06E
:102D000042F2010010BD04F1E02090F800044109F6
:102D1000082914D299B1012911D004290FD005290D
:102D20000DD00B480122816861B1610950F8213052
:102D300004F01F04A240134340F8213005E042F2A2
:102D4000020010BD2046FDF762F8002010BD000013
:102D5000404500202DE9F0473C4C3D4D3D4A606820
:102D6000A2F5137100BA401C00BA6060AB7A3A4E0B
:102D7000A1F5C67005F10C074FF6FF784FF45E79A8
:102D800040F2763A1BB3012B40D0FCF759FE39785C
:102D90004A4608EA0120A4F86002E889A4F8720211
:102DA000214601F66820FCF74BFB0022514604F651
:102DB0007620FEF737FC04F66821000288810020A7
:102DC000A872306840F480003060BDE8F087FCF7FE
:102DD00037FE39784A4608EA0120A4F86002E889FB
:102DE0001A49A4F8720201F55E70FCF729FB002273
:102DF00051461A48FEF716FC184900020E39888120
:102E00000120A872306840F48010DDE7FCF718FE5E
:102E100039784A4608EA0120A4F86002E8890B499B
:102E2000A4F8720201F5DE60FCF70AFB00225146AD
:102E30000B48FEF7F7FB0A4900020E398881022091
:102E4000A872306840F40010BEE70000102E002089
:102E5000682A0020EC3F0020E42A00209631002060
:102E60000E3500200148FFF725BA00000C2B00208A
:102E700070B50D460A46014601240648FCF7E0FA03
:102E8000EAB204490448FFF78FF900B10024204654
:102E900070BD00004C4500200C2B00202DE9F041B6
:102EA0000746806A14468846C8B3002531E000BF53
:102EB000B96A05EB450001EB8006B088801CFE284E
:102EC00002D90C20BDE8F0812288401C08F80200DD
:102ED00020881622401C80B2208008F8002020881C
:102EE000401C80B2208000EB0801308800F063FEB7
:102EF0002188084480B22080B28842B1B16871B1A3
:102F00004044FCF79DFA2088B188084420806D1C5D
:102F1000EDB297F82C00A842CAD80020D2E7FFE70C
:102F20000720CFE718B10349C860002070470E2082
:102F300070470000182B00201CB50E49019100912C
:102F4000694660DF0446DDE9002082420AD00A4972
:102F50000220FFF7D3FCFFF779FE0099421A07A180
:102F6000022003E024B1224611A10120FFF7C6FC94
:102F700020461CBD682A00202C4102005344483AD8
:102F80005741524E494E473A52414D2073697A6536
:102F90002073686F756C642062652061646A757364
:102FA00074656420746F2030782578200D0A000045
:102FB0005344483A4552524F523A73645F626C65CB
:102FC0005F656E61626C653A206572726F72203067
:102FD0007825780D0A00000070B50E4605461446A7
:102FE0001C211046FCF745FA012020800021A16138
:102FF00021752672657205B1A072002070BDFDF7C3
:10300000E3BE00002DE9F041074619B188074FF0F3
:10301000000402D00720BDE8F081114D4FF0E02000
:103020000126A9606A806B60D0F8000110F0010FE2
:1030300003D034460020FCF7D4FE0A49384610DF9E
:10304000070005D014B10020FCF7E1FE3846E2E7A6
:103050002E70FEF78DFEBDE8F0411620FFF742BE50
:10306000182B0020FF2F0200014800787047000055
:10307000182B00200149012008707047C62A002043
:103080002DE9F05F304D0024A346E879012852D1A4
:103090002E48007801284ED12D4985F807B0C1226D
:1030A00001F1C10000F010F929480178AA2942D1A4
:1030B00000F5107808F27E2308F6F851AA465A1C4B
:1030C00001F10C068146751C04EB440709EB8700EF
:1030D0000F6890F801C007F803C090F802C007F825
:1030E00002C090F803C007F806C0D1F800C0077905
:1030F0000CF805704779A8F854738779A8F84E73CF
:10310000C779A8F84273C77A806867F31F60C8F868
:103110006003DAF818707F1CCAF818700868641C1D
:10312000801CE4B20860102CCED3C02803D1C1F8B3
:1031300000B0FFF70FFE05480078002802D10549CE
:10314000C1F800B0BDE8F09F682A0020C22A002024
:10315000D02B0020083C00200EB50D490D4AD1E9C6
:103160000A01CDE901010A4801A92030FEF7A0FFBC
:10317000074820300068D0F81005074A1023C240E5
:1031800001200090024804212030FEF77BFF0EBD95
:10319000D83E020099370200006A1800F8B50026F0
:1031A00004460E7704200D46C4F80803C4F80861ED
:1031B000D4F808010090107910B11068007800E090
:1031C000E87EC4F81C051079012802D910684078FF
:1031D00003E0107B012802D9E87EC4F81C052868AA
:1031E00018B10420C4F80403F8BDD4F8080100287D
:1031F000FBD0C4F80861D4F80801009029462046A5
:1032000000F084FB0028F0D1A87EFF28ECD0BDE8B8
:10321000F840FFF70AB92DE9F843044610681E4646
:1032200015460F464FF0000810B1FEF7F0FDF8B15B
:10323000A86810B1FEF7EBFDD0B128792968C4F871
:103240004415C4F84805287BA968C4F83415C4F8A7
:1032500038054FF48C754046C4F81881D4F818111D
:103260000091F2074FF0010107D0C4F8501506E0B5
:1032700087F819801020BDE8F883C4F85005B2071C
:1032800002D5C4F8401501E0C4F84005300700D469
:103290002161386848B146F38000401C4FF040007F
:1032A0000FD0C4F804030020E5E729462046FFF7C5
:1032B00085FB0028F9D0B87EFF28F4D0FFF7B5F8D9
:1032C000F1E7C4F80803EEE72DE9F843124D804614
:1032D000002016460F4628704FF0A0440420C4F882
:1032E0000C050120FEF748FC3B46324641460B48A0
:1032F0000096FEF74FFE18B1FDF78EFD00E020BFEF
:1033000028780028FBD00120FEF736FC0420C4F802
:103310000805BDE8F8830000C62A0020244002000A
:103320001FB5144AD2E902105269CDE900100220FB
:10333000114903928DF8030003204FF0A042C1F819
:1033400000070421C2F808158DF8021005218DF838
:1033500001108DF8000000208DF80C00C8070290C5
:10336000064A69460348FEF75BFD002801D0FDF7D9
:1033700053FD1FBD244002000800005075300200BC
:103380002DE9F05FB0F5A67F2DED068B7ED1C2480A
:10339000C24CC27B437C017C03EB02434FF400022E
:1033A00002EB01211944C1F3D401E161837B057B68
:1033B000407B03EB054302EB0020184420F07F45DF
:1033C00025622078002808467ED0FCF7ECF941EC15
:1033D000190B9FEDB38B94ED0E0B53EC182B51ECA6
:1033E000100BFCF7FFF853EC192BFCF754F89FED8A
:1033F000AE9B53EC192BFCF767F9C4E90E01284684
:10340000FCF7D1F994ED0A0B41EC1A0B53EC182B95
:1034100051EC100BFCF7E6F853EC1A2BFCF73BF8D9
:1034200053EC192BFCF750F941EC1A0B53EC182B09
:1034300084ED0AAB94ED0C0B51EC100BFCF7D2F8B9
:1034400053EC1A2BFCF727F853EC192BFCF73CF93B
:10345000C4E90C01964E9749974A306801F5C67A3F
:1034600040F0007333600D6801F10C006D1C0D60BD
:10347000DAF8007007F1020957782F54D1F800C02C
:10348000451E92F800800CF8058000E0D0E00D6841
:10349000A0F6863CA0F6046B05F80C70A0F6873702
:1034A00005F8078017794FEA072CABF854C392F858
:1034B00005C04FEA0C2CABF84EC392F806C04FEA99
:1034C0000C2CABF842C300E01BE092F80AC0D2F823
:1034D00007206D1C6CF31F62CBF8602309F1010714
:1034E0000D60CAF8007067694FF0030C7F1CB7FBD2
:1034F000FCF867610CFB18774FF00008012F0ED025
:1035000015E0FCF750F9C4E90E012846FCF74BF929
:10351000C4E90A01C4E90C01012020709AE7677927
:103520007F1CFFB26771202F01D184F80580C02D68
:103530007ED1A4F81080C1F80080CAF80080DBF8C2
:103540000410564F09BA491C09BACBF8041011BA35
:10355000491C09BACBF8601394F80AC0574A5D4673
:103560000C37A2F513714FF6FF794FF45E7A40F2F3
:10357000763BBCF1000F0BD0BCF1010F4FEA831377
:1035800032D0002BB5F8783260DA43F400735FE094
:103590009B01B5F8783202D543F4007301E023F4BF
:1035A0000073A5F87832A4F81080FCF749FA39784E
:1035B000524609EA0120A5F86002E0894049A5F8D1
:1035C000720201F55E70FBF73BFF002259463D4851
:1035D000FEF728F83B4900020E3988810120A072CD
:1035E000306840F480102CE0002BB5F8783202DA15
:1035F00043F4007301E023F40073A5F87832A4F8D3
:103600001080FCF71DFA3978524609EA0120A5F826
:103610006002E0892A49A5F8720201F5DE60FBF735
:103620000FFF002259462848FDF7FCFF000200E08A
:1036300008E025490E3988810220A072306840F4E4
:1036400000103060BDEC068BBDE8F09F23F40073E2
:10365000A5F87832A4F81080FCF7F2F939785246D0
:1036600009EA0120A5F86002E0891549A5F872026F
:1036700001F66820FBF7E4FE002259461348FDF7E7
:10368000D1FF124900020E39888184F80A8031681E
:1036900041F480013160D5E7A4430020682A00206E
:1036A0000000000000B072400000000000C0724046
:1036B000E42A0020083C0020D02B0020EC3F002012
:1036C000102E0020963100200E3500208638002074
:1036D0002DE9F84F204C00256846D4E901B6FDF7E6
:1036E000B1FF8046FEF786F80746A946B8F1000FFD
:1036F00025D00023009ACC46606819E0076801468F
:10370000974202D9BA1A026014E0C1F800C0D1F899
:103710000C80D21BC8693B448A46B8F1000F07D021
:10372000F71827F07F47C1E90178CAF81C500D4609
:103730000028E3D160602846FEF7B0F804E0284690
:10374000FEF7ACF800B917B15846FDF7A1FE84F8B2
:103750000390BDE8F88F0000E82A00200D4B10B55B
:10376000596831B102680C68A24204D8A21A0A60F2
:10377000C161586010BD0B4603E00B46C969121BBE
:1037800021B10C689442F8D3A41A0C600260C161A4
:10379000D86110BDE82A002001490120C871704796
:1037A000682A00207CB5064600240D468DF80040AE
:1037B0006846FDF7DDFB01A800F032FA70B1057034
:1037C000094946609DF8040048709DF80000FDF727
:1037D000F3FB1420FCF726FB20467CBD04249DF857
:1037E0000000FDF7E9FBF7E7F82A00202DE9F0419A
:1037F0001D4D6C68002C35D01C4800270068A96856
:10380000B846401A20F07F462068B04215D82246BC
:10381000361A0744E469107C68B182F81080EB68BE
:1038200033B1D2E90501984728B1FDF7F5FA02E076
:10383000D2E905108847002CE6D1297868788142C2
:1038400006D1401CC0B26870022801D185F8018001
:1038500005486978183040F82170BDE8F04114201F
:10386000FCF7E0BABDE8F081E82A00200415014029
:1038700010B50023124A07211846FDF7EDFA08B1EA
:10388000FDF7CAFA0F4A01210F48FDF7D1FA0E4899
:103890000E4A0121001DFDF7CBFA0B480C4A01210D
:1038A0000830FDF7C5FA08480A4A00210C30FDF738
:1038B000BFFA002803D0BDE81040FDF7ADBA10BD37
:1038C000682D002015010200DC3E020019FF0100F6
:1038D000B5FE01006DF9010010B5144602004FF06D
:1038E00001000CD00846136806A24FF48071FCF763
:1038F000E3FE01462046BDE81040FDF749BD00212A
:10390000216010BD5B253038645D000038B5D0F80B
:1039100018258DF800200A7F0B7D9A4203D29DF86E
:1039200000300C69A3540A7F521CD3B20B770C7B76
:103930005A1C944202D98968895C03E00D7D954246
:1039400003D9C97EC0F81C1503E0A34201D3AB42E2
:1039500001D2012038BD002038BD70B50C460546A7
:103960004FF48E71FFF734F8A18AA068415CA08AF9
:10397000401CA082C5F81C1570BD1FB500228DF833
:1039800000208DF80810816801918275D0E900123D
:10399000684690471FBD00000078012801D1014909
:1039A00088707047082B00202DE9FF470C4605461C
:1039B0004FF40071FFF712F801274FF40178002649
:1039C00018B34FF4927949462846FEF7FCFFE0B160
:1039D00049462846FEF7FCFFC5F80883A07E00B9DB
:1039E0006F6002208DF80000D5F88004C5F88004CF
:1039F0000390E07D8DF80800E0680190E67526767A
:103A0000D4E900126846904727E004212846FEF7D3
:103A1000E5FF10B34FF484712846FEF7D4FFE0B100
:103A200021462846FFF738F9E07D617E884214D1AF
:103A3000207E38B1617EE268E0752069E06026761C
:103A4000667607E0A07E00B96F60C5F80883E6756A
:103A5000617EE2682046FFF738F94FF48E784146E0
:103A60002846FEF7B0FF88B1A08AA17D884204D223
:103A700021462846FFF771FF08E041462846FEF739
:103A8000A7FFA17D11B12046FFF777FF4FF4A27881
:103A900041462846FEF797FF002812D041462846A7
:103AA000FEF796FFA07E00B12F60E07D002808D0D1
:103AB000E675617EE26804B02046BDE8F047FFF796
:103AC00004B9BDE8FF872DE9FF410C464FF492771A
:103AD00005463946FEF788FF0026C0B1394628461C
:103AE000FEF787FF02208DF80000D5F88004C5F8A6
:103AF00080040390D5F83C058DF80800E06801903B
:103B0000E6752676D4E900126846904724E04FF423
:103B1000887739462846FEF767FFE8B139462846D8
:103B2000FEF767FFD5F83C05C1B2E07D884213D1AE
:103B3000207E60B1E268D5F8000220F02000C5F8D0
:103B40000002207EE0752069E060267601E0E675DF
:103B5000E2682046FFF7B9F84FF4A27739462846C5
:103B6000FEF742FF68B139462846FEF742FFE07D86
:103B700038B1E675D5F83C05E268C1B22046FFF7DA
:103B8000A4F84FF4907631462846FEF72DFF002822
:103B90000FD031462846FEF72CFFA07D002808D024
:103BA000D5F84C0504B0C1B22046BDE8F041FFF79E
:103BB000E4BEBDE8FF810870000A4870022070472B
:103BC00038B515494888A0F57F42FF3A23D04A7896
:103BD000124C521CD2B24A70237B93420AD3091D65
:103BE00075DF002817D0A169002914D001B0BDE805
:103BF0003040084700254D70217C29B13B2176DFFC
:103C000010B1A16901B188476169002903D08DF81D
:103C100000506846884738BDC82A0020EC43002081
:103C20000A4A10B553789478591CC9B28C4200D115
:103C3000002114788C4201D1002010BD0170506821
:103C400003EB430100EBC10010BD0000F82A002087
:103C50002DE9FC411646DDE90854CDE900541F4624
:103C60008046022200F00CF8002807D1CDE900546C
:103C70003B4610223146404600F002F8BDE8FC8188
:103C80002DE9FC5F0026DDE90C4B994692468E46F5
:103C900080462788354630E0D8F80400002200EB43
:103CA000850069460068019001A865DF002830D1D1
:103CB0009DF8000050451FD10EB1002100E0022107
:103CC000228808441118594522D846B9521C90B28E
:103CD000208009F800E02088401C208001262188EF
:103CE00001A801EB0902694665DF002811D120888F
:103CF0009DF80010084420806D1CB8F80000A84210
:103D0000CADC56B12088C01B401E80B2FF2802D9F1
:103D10000C20BDE8FC9F09F807000020F9E730B54A
:103D20008FB00024054607949DF81C001C2120F04C
:103D30000F00401C20F0F00010308DF81C009DF8A2
:103D40001D0020F00F00401C20F0F00010308DF816
:103D50001D009DF81E0020F00600801C8DF81E003E
:103D60006846FBF786FB9DF80000019440F01200C6
:103D70008DF8000007A8CDE904400394A87C8DF8D5
:103D80003A0041F22750ADF838000D949DF8340008
:103D9000142120F00F00401C20F0F00010308DF8AE
:103DA00034009DF8350020F00F00401C20F0F0009A
:103DB00010308DF835009DF8360020F00600801C8C
:103DC00020F0180040F001008DF8360008A8FBF73D
:103DD00050FB0EA808900DA809900120ADF828000E
:103DE0001420ADF82A40ADF82C000C94288805F179
:103DF0000A0308AA6946A2DF0FB030BD30B58FB004
:103E00000024054607949DF81C001C2120F00F009B
:103E1000401C20F0F00010308DF81C009DF81D00B3
:103E200020F00F00401C20F0F00010308DF81D0035
:103E30009DF81E0020F00600801C8DF81E006846CC
:103E4000FBF717FB9DF80000019440F00C008DF883
:103E5000000007A8CDE904400394A87C8DF83A003F
:103E600041F22850ADF838000D949DF8340014212B
:103E700020F00F00401C20F0F00010308DF83400CE
:103E80009DF8350020F00F00401C20F0F0001030AD
:103E90008DF835009DF8360020F00600801C20F0DB
:103EA000180040F001008DF8360008A8FBF7E1FA91
:103EB0000EA808900DA809900120ADF82800142044
:103EC000ADF82A40ADF82C002888AB1C08AA69463A
:103ED000A2DF0FB030BD0000302B0020502B00209F
:103EE000702B0020902B0020B02B00200100070039
:103EF00000A001400306000000B0014004060000DD
:103F0000000003070000000000000307000000009D
:103F10000000000002000002000000002615000062
:103F20000100000700316253C4F5A697B988DBEAA7
:103F30007D4C1F2E4372211087B6E5D4FACB98A989
:103F40003E0F5C6D86B7E4D5427320113F0E5D6C69
:103F5000FBCA99A8C5F4A796013063527C4D1E2F69
:103F6000B889DAEB3D0C5F6EF9C89BAA84B5E6D739
:103F7000407122137E4F1C2DBA8BD8E9C7F6A59449
:103F800003326150BB8AD9E87F4E1D2C0233605149
:103F9000C6F7A495F8C99AAB3C0D5E6F4170231229
:103FA00085B4E7D67A4B1829BE8FDCEDC3F2A19019
:103FB0000736655439085B6AFDCC9FAE80B1E2D309
:103FC00044752617FCCD9EAF38095A6B45742716E9
:103FD00081B0E3D2BF8EDDEC7B4A192806376455E9
:103FE000C2F3A0914776251483B2E1D0FECF9CADF9
:103FF0003A0B586904356657C0F1A293BD8CDFEEC9
:1040000079481B2AC1F0A3920534675678491A2BC8
:10401000BC8DDEEF82B3E0D1467724153B0A5968A8
:10402000FFCE9DAC0030004003000100FFFFFFFF0A
:1040300003FF00000000004000000000CC4300200F
:1040400023D1BCEA5F782315DEEF121200000000D6
:1040500000000050FFFFFFFFFFFFFFFFFFFFFFFF1C
:10406000FFFFFFFF00000000000000000000D6017D
:10407000070100002900000001000000010000000D
:10408000010000000100000001000000010000002C
:10409000010000000200000000404040404040405D
:1040A000404041414141414040404040404040400B
:1040B00040404040404040404005020202020202AF
:1040C00002020202020202020220202020202020FE
:1040D0002020200202020202020290909090909012
:1040E00010101010101010101010101010101010D0
:1040F0001010101002020202020288888888888844
:10410000080808080808080808080808080808082F
:10411000080808080202020240000000994002005C
:104120004F766572666C6F770D0A00005344483A0B
:104130005741524E494E473A73645F626C655F6502
:104140006E61626C653A2052414D207374617274E5
:104150002073686F756C642062652061646A757392
:1041600074656420746F20307825780D0A00000093
:1041700090410200682A0020C8000000E806020002
:1041800058420200302B0020383F0000F8060200A1
:104190000000003C00000000FF0000000A0A0000D0
:1041A000000000000000000000000000000000000F
:1041B00000000000000000000000000000000000FF
:1041C00000000000000000000000000000000000EF
:1041D0002002000D000000000000000000000000B0
:1041E000000000000000000000000000FFFF0000D1
:1041F00000000000000000000000000000000000BF
:1042000000000000000000000000000000000000AE
:10421000000000000000000000000000000000009E
:10422000000000000000000000000000000000008E
:1042300000000000002000400000000020410200BB
:10424000000000000000000000000000000000006E
:08425000000000000090D00303
:040000050001F40101
:00000001FF
